:020000040000FA
:100000000C9458000C9480000C9480000C94800098
:100010000C9480000C9480000C9480000C94800060
:100020000C9480000C9480000C9480000C94800050
:100030000C9480000C9480000C9480000C94800040
:100040000C94CB030C9480000C9480000C948000E2
:100050000C9480000C9480000C9480000C94800020
:100060000C9415040C94800000000000250028006A
:100070002B00040404040404040402020202020229
:10008000030303030303010204081020408001025C
:1000900004081020010204081020000000080002DB
:1000A0000100000304070000000000000000340508
:1000B00011241FBECFEFD8E0DEBFCDBF11E0A0E01E
:1000C000B1E0E6E8FCE002C005900D92A633B1076E
:1000D000D9F722E0A6E3B1E001C01D92A131B20739
:1000E000E1F710E0C8E5D0E004C02197FE010E94CE
:1000F0003B06C735D107C9F70E9454050C94410649
:100100000C94000008950895AF92BF92CF92DF92B1
:10011000EF92FF920F931F93CF93DF936C017B01BC
:100120008B01040F151FEB015E01AE18BF08C0174D
:10013000D10759F06991D601ED91FC910190F081C0
:10014000E02DC6010995892B79F7C501DF91CF9183
:100150001F910F91FF90EF90DF90CF90BF90AF90E5
:10016000089590E0FC01E656FF4F2491FC01EA5708
:10017000FF4F3491FC01EE58FF4FE491EE23C9F09C
:10018000222339F0233001F1A8F4213019F1223073
:1001900029F1F0E0EE0FFF1FE859FF4FA591B49150
:1001A0008FB7F894EC91611126C030953E233C93B3
:1001B0008FBF08952730A9F02830C9F0243049F7BF
:1001C000809180008F7D03C0809180008F77809325
:1001D0008000DFCF84B58F7784BDDBCF84B58F7D82
:1001E000FBCF8091B0008F778093B000D2CF809109
:1001F000B0008F7DF9CF3E2BDACF3FB7F8948091D6
:10020000ED019091EE01A091EF01B091F00126B5C2
:10021000A89B05C02F3F19F00196A11DB11D3FBF3E
:10022000BA2FA92F982F8827BC01CD01620F711D0D
:10023000811D911D42E0660F771F881F991F4A9507
:10024000D1F708958F929F92AF92BF92CF92DF9293
:10025000EF92FF924B015C010E94FD006B017C015B
:100260000E94FD006C197D098E099F09683E73404C
:1002700081059105A8F321E0821A9108A108B1082F
:1002800088EEC80E83E0D81EE11CF11C8114910495
:10029000A104B10429F7FF90EF90DF90CF90BF90B9
:1002A000AF909F908F900895089520917701260F29
:1002B0003327331F21323105ECF42091C001FC01BA
:1002C00090E080E0243069F082E00895A091770109
:1002D0002191AC01495A5E4FA40FB52FB11D2C934B
:1002E0000196861798F380917701680F60937701E4
:1002F00080E0089581E008951092C00181E080932C
:10030000BF0110929A0161E082E10E94B10061E0B8
:1003100083E10E94B100E9EBF0E080818E7F808371
:1003200080818D7F808388E48093B80085E480930A
:10033000BC000895CF93DF9391E0909356018823FA
:10034000B9F0C091B800D091BA008091BC008A7B0E
:100350008093BC0060E082E10E94B10060E083E134
:100360000E94B1000E947C01D093BA00C093B800F3
:10037000DF91CF9108950895E091F8018091F70100
:10038000E81730F4F0E0EA5CFE4F808190E00895D9
:100390008FEF9FEF08959091F8018091F7012FEF73
:1003A0003FEF981748F4E92FF0E0EA5CFE4F208118
:1003B00030E09F5F9093F801C90108958091F701A3
:1003C0009091F801891B990B0895CF92DF92EF92DB
:1003D000FF920F931F93CF93DF937C01CB018A0190
:1003E0002091C601222389F0EB016B01C40ED51EBA
:1003F000CC15DD0569F06991D701ED91FC91019073
:10040000F081E02DC7010995F3CF642F0E945501BB
:10041000C801DF91CF911F910F91FF90EF90DF9076
:10042000CF900895CF93DF931F92CDB7DEB7698346
:100430002091C6012223F9F02091F501203258F0D5
:1004400021E030E0FC013383228390E080E00F90D4
:10045000DF91CF9108958091F601E82FF0E0E95304
:10046000FE4F998190838F5F8093F6018093F50111
:1004700081E090E0ECCF61E0CE0101960E94550151
:10048000F7CFCF92DF92EF92FF920F931F93CF930C
:10049000DF93FC01C48121E02093C601C093E701F2
:1004A0001092F6011092F5018385682B89EF91E097
:1004B0000E941202D091F501D13208F092C00E9440
:1004C000FD006B017C018091C001811165C082E05B
:1004D0008093C00181E08093BF018FEF8093BE01C4
:1004E0001092BD01D093BC01A7ECB1E0ECE9F1E0C2
:1004F00080E0D81385C010929B0180919B01CC0FA6
:10050000C82BC0939B0180919A01813009F07CC077
:1005100010929A010E94FD006B017C0180919B0169
:100520008093BB008091C2019091C301A091C4014E
:10053000B091C501892B8A2B8B2B99F00E94FD006D
:100540000091C2011091C3012091C4013091C501F5
:100550006C197D098E099F090617170728073907A7
:10056000E0F18091BC0083FDD9CF85EC8093BC0085
:100570000E94FD006B017C018091C001823009F472
:1005800045C08091BE018F3F61F18091BE018032F4
:1005900041F18091BE0125C08091C2019091C301BB
:1005A000A091C401B091C501892B8A2B8B2B09F432
:1005B0008ACF0E94FD000091C2011091C3012091D9
:1005C000C4013091C5016C197D098E099F09061778
:1005D00017072807390708F076CF8091C1010E94DC
:1005E0009A011092F6011092F5011092C601DF9166
:1005F000CF911F910F91FF90EF90DF90CF900895D2
:100600009D9191938F5F75CF85EEB0CF8091C201A0
:100610009091C301A091C401B091C501892B8A2B8F
:100620008B2B09F4A9CF0E94FD000091C20110910B
:10063000C3012091C4013091C5016C197D098E0957
:100640009F09061717072807390708F095CFC5CF68
:1006500090E080E008950F931F93CF938C01C62FF5
:100660000E9441026C2F6460C8010E9441026C2FFD
:100670006B7FC8010E94410283EC90E00197F1F783
:10068000CF911F910F9108950F931F93CF93DF93F5
:100690008C01D62FC42F607F642B0E942B0380E136
:1006A000D89FB00111246C2BC801DF91CF911F910D
:1006B0000F910C942B03CF93DF93CDB7DEB7289720
:1006C0000FB6F894DEBF0FBECDBF98E0E0E0F1E0DA
:1006D000DE01119601900D929A95E1F790910D022D
:1006E000981708F48FEF90E0880F991F21E030E011
:1006F0002C0F3D1F820F931FFC0160816F5F6068AC
:1007000040E085E092E028960FB6F894DEBF0FBE79
:10071000CDBFDF91CF910C94440341E00E9444038C
:1007200081E090E0089585ED8093BC008091C20146
:100730009091C301A091C401B091C5010796A11D7C
:10074000B11D23E0B695A795979587952A95D1F782
:100750002091BC0024FD03C01092C0010895409177
:10076000C2015091C3016091C4017091C501452B34
:10077000462B472B69F30097A105B10541F025E30E
:100780002A95F1F700000197A109B109E1CF809105
:10079000C1010C949A011F920F920FB60F9211246F
:1007A0002F933F938F939F93AF93BF938091E901D2
:1007B0009091EA01A091EB01B091EC013091E80138
:1007C00023E0230F2D3758F50196A11DB11D20936D
:1007D000E8018093E9019093EA01A093EB01B093C3
:1007E000EC018091ED019091EE01A091EF01B091AB
:1007F000F0010196A11DB11D8093ED019093EE01D2
:10080000A093EF01B093F001BF91AF919F918F91B1
:100810003F912F910F900FBE0F901F90189526E8D3
:10082000230F0296A11DB11DD2CF1F920F920FB6BA
:100830000F9211242F933F934F935F936F937F9366
:100840008F939F93AF93BF93EF93FF938091B900E2
:10085000887F803609F44AC0F0F5883209F4A7C0D1
:1008600018F5803109F49BC0B8F4882309F4F9C065
:10087000883009F494C0FF91EF91BF91AF919F919F
:100880008F917F916F915F914F913F912F910F9039
:100890000FBE0F901F901895883109F488C08032E0
:1008A00051F78093BE0114C0803409F49DC040F418
:1008B0008033B9F38833F9F68093BE0185ECB0C07C
:1008C000803509F485C0883509F496C0883499F6D6
:1008D0000E949303D0CF883909F48CC038F588374B
:1008E00029F050F4883611F0803729F683E08093A0
:1008F000C0011092990157C0883809F47BC0803933
:1009000019F0803809F0B7CF80919901803208F052
:1009100071C0E091990181E08E0F809399018091DF
:10092000BB00F0E0E758FE4F80833DC0803B39F0CC
:10093000E0F4803A09F479C0883A09F09CCF84E069
:100940008093C0011092780110927701E091F30139
:10095000F091F40109958091770181110FC081E038
:10096000809377011092570109C0803C09F4A6CF0B
:10097000883C09F4A3CF883B09F07DCFE091780152
:1009800081E08E0F80937801F0E0E95AFE4F80817C
:100990008093BB00909178018091770129C080916C
:1009A0009B018093BB0085EC8093BC0064CF909149
:1009B000BD018091BC01981758F5E091BD0181E01F
:1009C0008E0F8093BD01F0E0E456FE4F8081E9CFA9
:1009D000E091BD0181E08E0F8093BD018091BB004D
:1009E000F0E0E456FE4F80839091BD018091BC0100
:1009F0009817C8F285E8D8CFE091BD0181E08E0F4D
:100A00008093BD018091BB00F0E0E456FE4F8083EF
:100A10008091BF0181115CCF81E080939A0184EACB
:100A20008093BC001092C00126CF85EC8093BC005F
:100A30001092C00180919901803230F4E0919901C7
:100A4000F0E0E758FE4F10826091990170E0E0916C
:100A5000F101F091F20189E791E009951092990175
:100A60000ACF1092BE0134CFE9EFF1E01382128277
:100A700088EE93E0A0E0B0E084839583A683B783FB
:100A80008CE091E091838083E5E0F2E013821282B2
:100A90008EE191E09183808387E2848384E1818782
:100AA00084E0828713860895789484B5826084BD3B
:100AB00084B5816084BD85B5826085BD85B5816062
:100AC00085BD80916E00816080936E0010928100E0
:100AD000809181008260809381008091810081609B
:100AE000809381008091800081608093800080915C
:100AF000B10084608093B1008091B00081608093E8
:100B0000B00080917A00846080937A0080917A00AE
:100B1000826080937A0080917A00816080937A006D
:100B200080917A00806880937A001092C1001092C0
:100B3000F8011092F7011092F6011092F5010E944F
:100B40007C0182E890E09093F4018093F30183E8C4
:100B500090E09093F2018093F10110920A0280914B
:100B60000F02823018F098E090930A0280930D02F1
:100B700062E370E080E090E00E9422016091100248
:100B800085E092E00E94410268EE73E080E090E030
:100B90000E94220160E385E092E00E942B03CBE4F7
:100BA000D6E4CE010197F1F760E385E092E00E9480
:100BB0002B032197F1F760E385E092E00E942B037D
:100BC00083E592E00197F1F760E285E092E00E9410
:100BD0002B0360910A02606240E085E092E00E948F
:100BE000440384E080930B0240E06CE085E092E0F7
:100BF0000E94440340E061E085E092E00E944403EB
:100C0000CBE3DFE1CE010197F1F782E080930C02A4
:100C100040E066E085E092E00E94440340E062E04C
:100C200085E092E00E9444032197F1F788E08093E9
:100C3000100260E085E092E00E94410280E00E94A4
:100C40005B0347E050E066E271E085E092E00E94DD
:100C5000840081E00E945B0347E050E06EE271E0B7
:100C600085E092E00E948400C0E0D0E02097F1F39C
:100C70000E940000FBCFEE0FFF1F0590F491E02DC6
:100C80000994F894FFCF00004000140054000000C5
:100C900000001202E5012803BB01DE01CB01BC010B
:100CA000000000008D0384002803540153656C612B
:0C0CB0006D696E00416C65796B756D001C
:107E0000112484B714BE81FFF0D085E080938100F7
:107E100082E08093C00088E18093C10086E0809377
:107E2000C20080E18093C4008EE0C9D0259A86E02C
:107E300020E33CEF91E0309385002093840096BBD3
:107E4000B09BFECF1D9AA8958150A9F7CC24DD24C4
:107E500088248394B5E0AB2EA1E19A2EF3E0BF2EE7
:107E6000A2D0813461F49FD0082FAFD0023811F036
:107E7000013811F484E001C083E08DD089C08234E0
:107E800011F484E103C0853419F485E0A6D080C0E4
:107E9000853579F488D0E82EFF2485D0082F10E0AE
:107EA000102F00270E291F29000F111F8ED06801E7
:107EB0006FC0863521F484E090D080E0DECF843638
:107EC00009F040C070D06FD0082F6DD080E0C81688
:107ED00080E7D80618F4F601B7BEE895C0E0D1E017
:107EE00062D089930C17E1F7F0E0CF16F0E7DF06D8
:107EF00018F0F601B7BEE89568D007B600FCFDCFD4
:107F0000A601A0E0B1E02C9130E011968C91119780
:107F100090E0982F8827822B932B1296FA010C0160
:107F200087BEE89511244E5F5F4FF1E0A038BF0790
:107F300051F7F601A7BEE89507B600FCFDCF97BE46
:107F4000E89526C08437B1F42ED02DD0F82E2BD052
:107F50003CD0F601EF2C8F010F5F1F4F84911BD097
:107F6000EA94F801C1F70894C11CD11CFA94CF0C13
:107F7000D11C0EC0853739F428D08EE10CD085E9AC
:107F80000AD08FE07ACF813511F488E018D01DD067
:107F900080E101D065CF982F8091C00085FFFCCF94
:107FA0009093C60008958091C00087FFFCCF809118
:107FB000C00084FD01C0A8958091C6000895E0E648
:107FC000F0E098E1908380830895EDDF803219F02E
:107FD00088E0F5DFFFCF84E1DECF1F93182FE3DFCA
:107FE0001150E9F7F2DF1F91089580E0E8DFEE27F6
:047FF000FF270994CA
:027FFE00040479
:00000001FF
